:100000000C9446000C945D000C945D000C945D0013
:100010000C945D000C945D000C945D000C945D00EC
:100020000C945D000C945D000C945D000C945D00DC
:100030000C945D000C945D000C945D000C945D00CC
:100040000C945D000C945D000C945D000C945D00BC
:100050000C945D000C945D000C945D000C945D00AC
:100060000C945D000C945D000C945D000C945D009C
:100070000C945D000C945D000C945D000C945D008C
:100080000C945D000C945D000C945D0011241FBE67
:10009000CFEFD0E4DEBFCDBF11E0A0E0B1E0E4EFF0
:1000A000F1E000E00BBF02C007900D92AE30B10747
:1000B000D9F70E9488000C94F8000C940000CF93AC
:1000C000DF9300D01F92CDB7DEB789837B836A832D
:1000D00089818A3031F48A819B81BC018DE00E9444
:1000E0005F0080EC90E0FC018081882F90E08072BE
:1000F00099270097B1F386EC90E02981FC012083D9
:1001000080E090E00F900F900F90DF91CF910895D5
:10011000CF93DF9300D000D0CDB7DEB781E290E07F
:10012000FC01108282E290E02FEFFC01208384E248
:1001300090E0FC01108285E290E02FEFFC0120832B
:1001400087E290E02FEFFC01208388E290E0FC0141
:10015000108280E290E0FC018081898383E290E05C
:10016000FC0180818A831C821B821AC08981882FAE
:1001700090E02B81222F30E0022E02C095958795CA
:100180000A94E2F789838981882F90E0817099270A
:10019000009719F08C818F5F8C838B818F5F8B83AD
:1001A0008B81883018F31B821AC08A81882F90E0D7
:1001B0002B81222F30E0022E02C0959587950A945C
:1001C000E2F78A838A81882F90E0817099270097CF
:1001D00019F08C818F5F8C838B818F5F8B838B81F8
:1001E000883018F388E290E02C81FC012083B1CFA5
:0401F000F894FFCFB1
:0E01F40000000002000000005F00000000009C
:00000001FF
